{
  "_format": "hh-sol-artifact-1",
  "contractName": "Crowdfunding",
  "sourceName": "contracts/Crowdfunding.sol",
  "abi": [
    {
      "inputs": [],
      "stateMutability": "nonpayable",
      "type": "constructor"
    },
    {
      "anonymous": false,
      "inputs": [
        {
          "indexed": false,
          "internalType": "uint256",
          "name": "campaignId",
          "type": "uint256"
        }
      ],
      "name": "CampaignCancelled",
      "type": "event"
    },
    {
      "anonymous": false,
      "inputs": [
        {
          "indexed": false,
          "internalType": "uint256",
          "name": "campaignId",
          "type": "uint256"
        }
      ],
      "name": "CampaignCompleted",
      "type": "event"
    },
    {
      "anonymous": false,
      "inputs": [
        {
          "indexed": false,
          "internalType": "uint256",
          "name": "campaignId",
          "type": "uint256"
        },
        {
          "indexed": false,
          "internalType": "address",
          "name": "entrepreneur",
          "type": "address"
        },
        {
          "indexed": false,
          "internalType": "string",
          "name": "title",
          "type": "string"
        }
      ],
      "name": "CampaignCreated",
      "type": "event"
    },
    {
      "anonymous": false,
      "inputs": [
        {
          "indexed": false,
          "internalType": "address",
          "name": "owner",
          "type": "address"
        }
      ],
      "name": "ContractDeactivated",
      "type": "event"
    },
    {
      "anonymous": false,
      "inputs": [
        {
          "indexed": false,
          "internalType": "address",
          "name": "entrepreneur",
          "type": "address"
        }
      ],
      "name": "EntrepreneurBanned",
      "type": "event"
    },
    {
      "anonymous": false,
      "inputs": [
        {
          "indexed": false,
          "internalType": "address",
          "name": "owner",
          "type": "address"
        },
        {
          "indexed": false,
          "internalType": "uint256",
          "name": "amount",
          "type": "uint256"
        }
      ],
      "name": "FundsWithdrawn",
      "type": "event"
    },
    {
      "anonymous": false,
      "inputs": [
        {
          "indexed": false,
          "internalType": "uint256",
          "name": "campaignId",
          "type": "uint256"
        },
        {
          "indexed": false,
          "internalType": "address",
          "name": "backer",
          "type": "address"
        },
        {
          "indexed": false,
          "internalType": "uint256",
          "name": "amount",
          "type": "uint256"
        }
      ],
      "name": "PledgeMade",
      "type": "event"
    },
    {
      "anonymous": false,
      "inputs": [
        {
          "indexed": false,
          "internalType": "uint256",
          "name": "campaignId",
          "type": "uint256"
        },
        {
          "indexed": false,
          "internalType": "address",
          "name": "backer",
          "type": "address"
        },
        {
          "indexed": false,
          "internalType": "uint256",
          "name": "amount",
          "type": "uint256"
        }
      ],
      "name": "RefundIssued",
      "type": "event"
    },
    {
      "inputs": [
        {
          "internalType": "address",
          "name": "",
          "type": "address"
        },
        {
          "internalType": "uint256",
          "name": "",
          "type": "uint256"
        }
      ],
      "name": "backersShares",
      "outputs": [
        {
          "internalType": "uint256",
          "name": "",
          "type": "uint256"
        }
      ],
      "stateMutability": "view",
      "type": "function"
    },
    {
      "inputs": [
        {
          "internalType": "address",
          "name": "_entrepreneur",
          "type": "address"
        }
      ],
      "name": "banEntrepreneur",
      "outputs": [],
      "stateMutability": "nonpayable",
      "type": "function"
    },
    {
      "inputs": [
        {
          "internalType": "address",
          "name": "",
          "type": "address"
        }
      ],
      "name": "bannedEntrepreneurs",
      "outputs": [
        {
          "internalType": "bool",
          "name": "",
          "type": "bool"
        }
      ],
      "stateMutability": "view",
      "type": "function"
    },
    {
      "inputs": [],
      "name": "campaignCount",
      "outputs": [
        {
          "internalType": "uint256",
          "name": "",
          "type": "uint256"
        }
      ],
      "stateMutability": "view",
      "type": "function"
    },
    {
      "inputs": [],
      "name": "campaignFee",
      "outputs": [
        {
          "internalType": "uint256",
          "name": "",
          "type": "uint256"
        }
      ],
      "stateMutability": "view",
      "type": "function"
    },
    {
      "inputs": [
        {
          "internalType": "uint256",
          "name": "",
          "type": "uint256"
        }
      ],
      "name": "campaigns",
      "outputs": [
        {
          "internalType": "uint256",
          "name": "campaignId",
          "type": "uint256"
        },
        {
          "internalType": "address",
          "name": "entrepreneur",
          "type": "address"
        },
        {
          "internalType": "string",
          "name": "title",
          "type": "string"
        },
        {
          "internalType": "uint256",
          "name": "pledgeCost",
          "type": "uint256"
        },
        {
          "internalType": "uint256",
          "name": "pledgesNeeded",
          "type": "uint256"
        },
        {
          "internalType": "uint256",
          "name": "pledgesCount",
          "type": "uint256"
        },
        {
          "internalType": "bool",
          "name": "fulfilled",
          "type": "bool"
        },
        {
          "internalType": "bool",
          "name": "cancelled",
          "type": "bool"
        },
        {
          "internalType": "uint256",
          "name": "totalPledgedAmount",
          "type": "uint256"
        }
      ],
      "stateMutability": "view",
      "type": "function"
    },
    {
      "inputs": [
        {
          "internalType": "uint256",
          "name": "_campaignId",
          "type": "uint256"
        }
      ],
      "name": "cancelCampaign",
      "outputs": [],
      "stateMutability": "nonpayable",
      "type": "function"
    },
    {
      "inputs": [
        {
          "internalType": "address",
          "name": "newOwner",
          "type": "address"
        }
      ],
      "name": "changeOwner",
      "outputs": [],
      "stateMutability": "nonpayable",
      "type": "function"
    },
    {
      "inputs": [
        {
          "internalType": "uint256",
          "name": "_campaignId",
          "type": "uint256"
        }
      ],
      "name": "completeCampaign",
      "outputs": [],
      "stateMutability": "nonpayable",
      "type": "function"
    },
    {
      "inputs": [
        {
          "internalType": "string",
          "name": "_title",
          "type": "string"
        },
        {
          "internalType": "uint256",
          "name": "_pledgeCost",
          "type": "uint256"
        },
        {
          "internalType": "uint256",
          "name": "_pledgesNeeded",
          "type": "uint256"
        }
      ],
      "name": "createCampaign",
      "outputs": [],
      "stateMutability": "payable",
      "type": "function"
    },
    {
      "inputs": [],
      "name": "deactivateContract",
      "outputs": [],
      "stateMutability": "nonpayable",
      "type": "function"
    },
    {
      "inputs": [],
      "name": "feePercentage",
      "outputs": [
        {
          "internalType": "uint256",
          "name": "",
          "type": "uint256"
        }
      ],
      "stateMutability": "view",
      "type": "function"
    },
    {
      "inputs": [],
      "name": "finalizeRefunds",
      "outputs": [],
      "stateMutability": "nonpayable",
      "type": "function"
    },
    {
      "inputs": [],
      "name": "getActiveCampaigns",
      "outputs": [
        {
          "components": [
            {
              "internalType": "uint256",
              "name": "campaignId",
              "type": "uint256"
            },
            {
              "internalType": "address",
              "name": "entrepreneur",
              "type": "address"
            },
            {
              "internalType": "string",
              "name": "title",
              "type": "string"
            },
            {
              "internalType": "uint256",
              "name": "pledgeCost",
              "type": "uint256"
            },
            {
              "internalType": "uint256",
              "name": "pledgesNeeded",
              "type": "uint256"
            },
            {
              "internalType": "uint256",
              "name": "pledgesCount",
              "type": "uint256"
            },
            {
              "internalType": "bool",
              "name": "fulfilled",
              "type": "bool"
            },
            {
              "internalType": "bool",
              "name": "cancelled",
              "type": "bool"
            },
            {
              "internalType": "address[]",
              "name": "backers",
              "type": "address[]"
            },
            {
              "internalType": "uint256",
              "name": "totalPledgedAmount",
              "type": "uint256"
            }
          ],
          "internalType": "struct Crowdfunding.Campaign[]",
          "name": "",
          "type": "tuple[]"
        }
      ],
      "stateMutability": "view",
      "type": "function"
    },
    {
      "inputs": [
        {
          "internalType": "address",
          "name": "_backer",
          "type": "address"
        },
        {
          "internalType": "uint256",
          "name": "_campaignId",
          "type": "uint256"
        }
      ],
      "name": "getBackerShares",
      "outputs": [
        {
          "internalType": "uint256",
          "name": "",
          "type": "uint256"
        }
      ],
      "stateMutability": "view",
      "type": "function"
    },
    {
      "inputs": [
        {
          "internalType": "uint256",
          "name": "_campaignId",
          "type": "uint256"
        }
      ],
      "name": "getBackersForCampaign",
      "outputs": [
        {
          "internalType": "address[]",
          "name": "",
          "type": "address[]"
        }
      ],
      "stateMutability": "view",
      "type": "function"
    },
    {
      "inputs": [
        {
          "internalType": "uint256",
          "name": "_campaignId",
          "type": "uint256"
        }
      ],
      "name": "getCampaignDetails",
      "outputs": [
        {
          "internalType": "uint256",
          "name": "campaignId",
          "type": "uint256"
        },
        {
          "internalType": "address",
          "name": "entrepreneur",
          "type": "address"
        },
        {
          "internalType": "string",
          "name": "title",
          "type": "string"
        },
        {
          "internalType": "uint256",
          "name": "pledgeCost",
          "type": "uint256"
        },
        {
          "internalType": "uint256",
          "name": "pledgesNeeded",
          "type": "uint256"
        },
        {
          "internalType": "uint256",
          "name": "pledgesCount",
          "type": "uint256"
        },
        {
          "internalType": "bool",
          "name": "fulfilled",
          "type": "bool"
        },
        {
          "internalType": "bool",
          "name": "cancelled",
          "type": "bool"
        },
        {
          "internalType": "uint256",
          "name": "totalPledgedAmount",
          "type": "uint256"
        }
      ],
      "stateMutability": "view",
      "type": "function"
    },
    {
      "inputs": [
        {
          "internalType": "address",
          "name": "_entrepreneur",
          "type": "address"
        }
      ],
      "name": "getCampaignsByEntrepreneur",
      "outputs": [
        {
          "components": [
            {
              "internalType": "uint256",
              "name": "campaignId",
              "type": "uint256"
            },
            {
              "internalType": "address",
              "name": "entrepreneur",
              "type": "address"
            },
            {
              "internalType": "string",
              "name": "title",
              "type": "string"
            },
            {
              "internalType": "uint256",
              "name": "pledgeCost",
              "type": "uint256"
            },
            {
              "internalType": "uint256",
              "name": "pledgesNeeded",
              "type": "uint256"
            },
            {
              "internalType": "uint256",
              "name": "pledgesCount",
              "type": "uint256"
            },
            {
              "internalType": "bool",
              "name": "fulfilled",
              "type": "bool"
            },
            {
              "internalType": "bool",
              "name": "cancelled",
              "type": "bool"
            },
            {
              "internalType": "address[]",
              "name": "backers",
              "type": "address[]"
            },
            {
              "internalType": "uint256",
              "name": "totalPledgedAmount",
              "type": "uint256"
            }
          ],
          "internalType": "struct Crowdfunding.Campaign[]",
          "name": "",
          "type": "tuple[]"
        }
      ],
      "stateMutability": "view",
      "type": "function"
    },
    {
      "inputs": [],
      "name": "getCancelledCampaigns",
      "outputs": [
        {
          "components": [
            {
              "internalType": "uint256",
              "name": "campaignId",
              "type": "uint256"
            },
            {
              "internalType": "address",
              "name": "entrepreneur",
              "type": "address"
            },
            {
              "internalType": "string",
              "name": "title",
              "type": "string"
            },
            {
              "internalType": "uint256",
              "name": "pledgeCost",
              "type": "uint256"
            },
            {
              "internalType": "uint256",
              "name": "pledgesNeeded",
              "type": "uint256"
            },
            {
              "internalType": "uint256",
              "name": "pledgesCount",
              "type": "uint256"
            },
            {
              "internalType": "bool",
              "name": "fulfilled",
              "type": "bool"
            },
            {
              "internalType": "bool",
              "name": "cancelled",
              "type": "bool"
            },
            {
              "internalType": "address[]",
              "name": "backers",
              "type": "address[]"
            },
            {
              "internalType": "uint256",
              "name": "totalPledgedAmount",
              "type": "uint256"
            }
          ],
          "internalType": "struct Crowdfunding.Campaign[]",
          "name": "",
          "type": "tuple[]"
        }
      ],
      "stateMutability": "view",
      "type": "function"
    },
    {
      "inputs": [
        {
          "internalType": "address",
          "name": "_backer",
          "type": "address"
        }
      ],
      "name": "getInvestorCampaigns",
      "outputs": [
        {
          "internalType": "uint256[]",
          "name": "",
          "type": "uint256[]"
        },
        {
          "internalType": "uint256[]",
          "name": "",
          "type": "uint256[]"
        }
      ],
      "stateMutability": "view",
      "type": "function"
    },
    {
      "inputs": [],
      "name": "isContractActive",
      "outputs": [
        {
          "internalType": "bool",
          "name": "",
          "type": "bool"
        }
      ],
      "stateMutability": "view",
      "type": "function"
    },
    {
      "inputs": [],
      "name": "owner",
      "outputs": [
        {
          "internalType": "address",
          "name": "",
          "type": "address"
        }
      ],
      "stateMutability": "view",
      "type": "function"
    },
    {
      "inputs": [
        {
          "internalType": "uint256",
          "name": "_campaignId",
          "type": "uint256"
        },
        {
          "internalType": "uint256",
          "name": "_shares",
          "type": "uint256"
        }
      ],
      "name": "pledge",
      "outputs": [],
      "stateMutability": "payable",
      "type": "function"
    },
    {
      "inputs": [],
      "name": "withdrawFunds",
      "outputs": [],
      "stateMutability": "nonpayable",
      "type": "function"
    }
  ],
  "bytecode": "0x6080604052601460015566470de4df8200006002556001600360006101000a81548160ff02191690831515021790555034801561003b57600080fd5b50336000806101000a81548173ffffffffffffffffffffffffffffffffffffffff021916908373ffffffffffffffffffffffffffffffffffffffff160217905550613e7a8061008b6000396000f3fe60806040526004361061014b5760003560e01c80638f5949f9116100b6578063bca353be1161006f578063bca353be1461048c578063c0751ba4146104a3578063c362b156146104ce578063d993de62146104f9578063efb801831461053e578063fde327be1461057b5761014b565b80638f5949f9146103a45780639553f180146103cf578063a001ecdd146103f8578063a26329f014610423578063a6f9dae11461043a578063ba3922d0146104635761014b565b80635859418311610108578063585941831461026b5780635ddea0e9146102a957806366271e42146102e65780637274e30d146103235780638a5be9b71461034e5780638da5cb5b146103795761014b565b8063141961bc1461015057806324600fc3146101955780633020580b146101ac578063373497fd146101c857806345598b4a14610205578063532a8b6d1461022e575b600080fd5b34801561015c57600080fd5b5061017760048036038101906101729190612a44565b610597565b60405161018c99989796959493929190612b6c565b60405180910390f35b3480156101a157600080fd5b506101aa6106a7565b005b6101c660048036038101906101c19190612d35565b61092d565b005b3480156101d457600080fd5b506101ef60048036038101906101ea9190612dd0565b610b31565b6040516101fc9190612dfd565b60405180910390f35b34801561021157600080fd5b5061022c60048036038101906102279190612a44565b610b51565b005b34801561023a57600080fd5b5061025560048036038101906102509190612a44565b610f16565b6040516102629190612ed6565b60405180910390f35b34801561027757600080fd5b50610292600480360381019061028d9190612dd0565b610fba565b6040516102a0929190612fb6565b60405180910390f35b3480156102b557600080fd5b506102d060048036038101906102cb9190612fed565b6111c0565b6040516102dd919061302d565b60405180910390f35b3480156102f257600080fd5b5061030d60048036038101906103089190612fed565b6111e5565b60405161031a919061302d565b60405180910390f35b34801561032f57600080fd5b50610338611240565b604051610345919061302d565b60405180910390f35b34801561035a57600080fd5b50610363611246565b604051610370919061302d565b60405180910390f35b34801561038557600080fd5b5061038e61124c565b60405161039b9190613048565b60405180910390f35b3480156103b057600080fd5b506103b9611270565b6040516103c69190612dfd565b60405180910390f35b3480156103db57600080fd5b506103f660048036038101906103f19190612a44565b611283565b005b34801561040457600080fd5b5061040d61157b565b60405161041a919061302d565b60405180910390f35b34801561042f57600080fd5b50610438611581565b005b34801561044657600080fd5b50610461600480360381019061045c9190612dd0565b6117f4565b005b34801561046f57600080fd5b5061048a60048036038101906104859190612dd0565b611934565b005b34801561049857600080fd5b506104a1611a54565b005b3480156104af57600080fd5b506104b8611b56565b6040516104c591906132ce565b60405180910390f35b3480156104da57600080fd5b506104e3611e88565b6040516104f091906132ce565b60405180910390f35b34801561050557600080fd5b50610520600480360381019061051b9190612a44565b612216565b60405161053599989796959493929190612b6c565b60405180910390f35b34801561054a57600080fd5b5061056560048036038101906105609190612dd0565b61234d565b60405161057291906132ce565b60405180910390f35b610595600480360381019061059091906132f0565b6126f0565b005b60046020528060005260406000206000915090508060000154908060010160009054906101000a900473ffffffffffffffffffffffffffffffffffffffff16908060020180546105e69061335f565b80601f01602080910402602001604051908101604052809291908181526020018280546106129061335f565b801561065f5780601f106106345761010080835404028352916020019161065f565b820191906000526020600020905b81548152906001019060200180831161064257829003601f168201915b5050505050908060030154908060040154908060050154908060060160009054906101000a900460ff16908060060160019054906101000a900460ff16908060080154905089565b60008054906101000a900473ffffffffffffffffffffffffffffffffffffffff1673ffffffffffffffffffffffffffffffffffffffff163373ffffffffffffffffffffffffffffffffffffffff1614610735576040517f08c379a000000000000000000000000000000000000000000000000000000000815260040161072c906133dc565b60405180910390fd5b600360009054906101000a900460ff16610784576040517f08c379a000000000000000000000000000000000000000000000000000000000815260040161077b90613448565b60405180910390fd5b6000805b6007548110156108265760006004600083815260200190815260200160002090508060060160009054906101000a900460ff16156108125760008160080154905060006064600154836107db9190613497565b6107e59190613508565b905080856107f39190613539565b9450600254856108039190613539565b94506000836008018190555050505b50808061081e9061356d565b915050610788565b508047101561086a576040517f08c379a000000000000000000000000000000000000000000000000000000000815260040161086190613601565b60405180910390fd5b60008054906101000a900473ffffffffffffffffffffffffffffffffffffffff1673ffffffffffffffffffffffffffffffffffffffff166108fc829081150290604051600060405180830381858888f193505050501580156108d0573d6000803e3d6000fd5b507feaff4b37086828766ad3268786972c0cd24259d4c87a80f9d3963a3c3d999b0d60008054906101000a900473ffffffffffffffffffffffffffffffffffffffff1682604051610922929190613621565b60405180910390a150565b600560003373ffffffffffffffffffffffffffffffffffffffff1673ffffffffffffffffffffffffffffffffffffffff16815260200190815260200160002060009054906101000a900460ff16156109ba576040517f08c379a00000000000000000000000000000000000000000000000000000000081526004016109b190613696565b60405180910390fd5b600360009054906101000a900460ff16610a09576040517f08c379a0000000000000000000000000000000000000000000000000000000008152600401610a0090613448565b60405180910390fd5b6002543414610a4d576040517f08c379a0000000000000000000000000000000000000000000000000000000008152600401610a4490613702565b60405180910390fd5b600060076000815480929190610a629061356d565b9190505590506000600460008381526020019081526020016000209050818160000181905550338160010160006101000a81548173ffffffffffffffffffffffffffffffffffffffff021916908373ffffffffffffffffffffffffffffffffffffffff16021790555084816002019081610adc91906138ce565b508381600301819055508281600401819055507fc04c663886cae794dc52158f70fe6c8ee3b0140d4f48647282f9b693ff688a65823387604051610b22939291906139a0565b60405180910390a15050505050565b60056020528060005260406000206000915054906101000a900460ff1681565b803373ffffffffffffffffffffffffffffffffffffffff166004600083815260200190815260200160002060010160009054906101000a900473ffffffffffffffffffffffffffffffffffffffff1673ffffffffffffffffffffffffffffffffffffffff1614610bf6576040517f08c379a0000000000000000000000000000000000000000000000000000000008152600401610bed906133dc565b60405180910390fd5b600360009054906101000a900460ff16610c45576040517f08c379a0000000000000000000000000000000000000000000000000000000008152600401610c3c90613448565b60405180910390fd5b60006004600084815260200190815260200160002090508060060160009054906101000a900460ff1615610cae576040517f08c379a0000000000000000000000000000000000000000000000000000000008152600401610ca590613a2a565b60405180910390fd5b8060060160019054906101000a900460ff1615610d00576040517f08c379a0000000000000000000000000000000000000000000000000000000008152600401610cf790613a96565b60405180910390fd5b60018160060160016101000a81548160ff02191690831515021790555060005b8160070180549050811015610ecf576000826007018281548110610d4757610d46613ab6565b5b9060005260206000200160009054906101000a900473ffffffffffffffffffffffffffffffffffffffff16905060008360030154600660008473ffffffffffffffffffffffffffffffffffffffff1673ffffffffffffffffffffffffffffffffffffffff168152602001908152602001600020600088815260200190815260200160002054610dd69190613497565b90506000811115610eba578173ffffffffffffffffffffffffffffffffffffffff166108fc829081150290604051600060405180830381858888f19350505050158015610e27573d6000803e3d6000fd5b507f7a482fdeb6bc9a1376f597068a214a7a39472bb2eff1b8cad21ba04f49ddca1b868383604051610e5b93929190613ae5565b60405180910390a16000600660008473ffffffffffffffffffffffffffffffffffffffff1673ffffffffffffffffffffffffffffffffffffffff1681526020019081526020016000206000888152602001908152602001600020819055505b50508080610ec79061356d565b915050610d20565b50600081600801819055507f403b6718db13878ac16c27decb08f09d3a10f116c7c25af575ff5bfbc11ae9e683604051610f09919061302d565b60405180910390a1505050565b606060046000838152602001908152602001600020600701805480602002602001604051908101604052809291908181526020018280548015610fae57602002820191906000526020600020905b8160009054906101000a900473ffffffffffffffffffffffffffffffffffffffff1673ffffffffffffffffffffffffffffffffffffffff1681526020019060010190808311610f64575b50505050509050919050565b6060806000805b600754811015611046576000600660008773ffffffffffffffffffffffffffffffffffffffff1673ffffffffffffffffffffffffffffffffffffffff168152602001908152602001600020600083815260200190815260200160002054111561103357818061102f9061356d565b9250505b808061103e9061356d565b915050610fc1565b5060008167ffffffffffffffff81111561106357611062612c0a565b5b6040519080825280602002602001820160405280156110915781602001602082028036833780820191505090505b50905060008267ffffffffffffffff8111156110b0576110af612c0a565b5b6040519080825280602002602001820160405280156110de5781602001602082028036833780820191505090505b5090506000805b6007548110156111b0576000600660008a73ffffffffffffffffffffffffffffffffffffffff1673ffffffffffffffffffffffffffffffffffffffff1681526020019081526020016000206000838152602001908152602001600020549050600081111561119c578185848151811061116157611160613ab6565b5b6020026020010181815250508084848151811061118157611180613ab6565b5b60200260200101818152505082806111989061356d565b9350505b5080806111a89061356d565b9150506110e5565b5082829550955050505050915091565b6006602052816000526040600020602052806000526040600020600091509150505481565b6000600660008473ffffffffffffffffffffffffffffffffffffffff1673ffffffffffffffffffffffffffffffffffffffff168152602001908152602001600020600083815260200190815260200160002054905092915050565b60075481565b60025481565b60008054906101000a900473ffffffffffffffffffffffffffffffffffffffff1681565b600360009054906101000a900460ff1681565b803373ffffffffffffffffffffffffffffffffffffffff166004600083815260200190815260200160002060010160009054906101000a900473ffffffffffffffffffffffffffffffffffffffff1673ffffffffffffffffffffffffffffffffffffffff1614611328576040517f08c379a000000000000000000000000000000000000000000000000000000000815260040161131f906133dc565b60405180910390fd5b600360009054906101000a900460ff16611377576040517f08c379a000000000000000000000000000000000000000000000000000000000815260040161136e90613448565b60405180910390fd5b60006004600084815260200190815260200160002090508060060160009054906101000a900460ff16156113e0576040517f08c379a00000000000000000000000000000000000000000000000000000000081526004016113d790613b68565b60405180910390fd5b8060060160019054906101000a900460ff1615611432576040517f08c379a000000000000000000000000000000000000000000000000000000000815260040161142990613bd4565b60405180910390fd5b80600401548160050154101561147d576040517f08c379a000000000000000000000000000000000000000000000000000000000815260040161147490613c40565b60405180910390fd5b60008160080154905060006064600154836114989190613497565b6114a29190613508565b9050600081836114b29190613c60565b90508360010160009054906101000a900473ffffffffffffffffffffffffffffffffffffffff1673ffffffffffffffffffffffffffffffffffffffff166108fc829081150290604051600060405180830381858888f1935050505015801561151e573d6000803e3d6000fd5b5060018460060160006101000a81548160ff0219169083151502179055507fbdef6a2e3aa892961a2dab48272f72f2bc1c7121eb1c0ed7e4a58e081c1e4be08660405161156b919061302d565b60405180910390a1505050505050565b60015481565b60008054906101000a900473ffffffffffffffffffffffffffffffffffffffff1673ffffffffffffffffffffffffffffffffffffffff163373ffffffffffffffffffffffffffffffffffffffff161461160f576040517f08c379a0000000000000000000000000000000000000000000000000000000008152600401611606906133dc565b60405180910390fd5b60005b6007548110156117f15760006004600083815260200190815260200160002090508060060160019054906101000a900460ff168015611655575060008160080154115b156117dd5760005b81600701805490508110156117d157600082600701828154811061168457611683613ab6565b5b9060005260206000200160009054906101000a900473ffffffffffffffffffffffffffffffffffffffff16905060008360030154600660008473ffffffffffffffffffffffffffffffffffffffff1673ffffffffffffffffffffffffffffffffffffffff1681526020019081526020016000206000878152602001908152602001600020546117139190613497565b905060008111156117bc576000600660008473ffffffffffffffffffffffffffffffffffffffff1673ffffffffffffffffffffffffffffffffffffffff1681526020019081526020016000206000878152602001908152602001600020819055508173ffffffffffffffffffffffffffffffffffffffff166108fc829081150290604051600060405180830381858888f193505050501580156117ba573d6000803e3d6000fd5b505b505080806117c99061356d565b91505061165d565b50600081600801819055505b5080806117e99061356d565b915050611612565b50565b60008054906101000a900473ffffffffffffffffffffffffffffffffffffffff1673ffffffffffffffffffffffffffffffffffffffff163373ffffffffffffffffffffffffffffffffffffffff1614611882576040517f08c379a0000000000000000000000000000000000000000000000000000000008152600401611879906133dc565b60405180910390fd5b600073ffffffffffffffffffffffffffffffffffffffff168173ffffffffffffffffffffffffffffffffffffffff16036118f1576040517f08c379a00000000000000000000000000000000000000000000000000000000081526004016118e890613ce0565b60405180910390fd5b806000806101000a81548173ffffffffffffffffffffffffffffffffffffffff021916908373ffffffffffffffffffffffffffffffffffffffff16021790555050565b60008054906101000a900473ffffffffffffffffffffffffffffffffffffffff1673ffffffffffffffffffffffffffffffffffffffff163373ffffffffffffffffffffffffffffffffffffffff16146119c2576040517f08c379a00000000000000000000000000000000000000000000000000000000081526004016119b9906133dc565b60405180910390fd5b6001600560008373ffffffffffffffffffffffffffffffffffffffff1673ffffffffffffffffffffffffffffffffffffffff16815260200190815260200160002060006101000a81548160ff0219169083151502179055507f3f922f60a028a67e443da050ff7522530506e79ebcf299307cf3f567f03da86981604051611a499190613048565b60405180910390a150565b60008054906101000a900473ffffffffffffffffffffffffffffffffffffffff1673ffffffffffffffffffffffffffffffffffffffff163373ffffffffffffffffffffffffffffffffffffffff1614611ae2576040517f08c379a0000000000000000000000000000000000000000000000000000000008152600401611ad9906133dc565b60405180910390fd5b6000600360006101000a81548160ff0219169083151502179055507fe0fd9aa6ce4b6335c1ccab1cd908c7c98bfd522946ded92319f91191ef89c04460008054906101000a900473ffffffffffffffffffffffffffffffffffffffff16604051611b4c9190613048565b60405180910390a1565b60606000805b600754811015611bb1576004600082815260200190815260200160002060060160019054906101000a900460ff1615611b9e578180611b9a9061356d565b9250505b8080611ba99061356d565b915050611b5c565b5060008167ffffffffffffffff811115611bce57611bcd612c0a565b5b604051908082528060200260200182016040528015611c0757816020015b611bf461298d565b815260200190600190039081611bec5790505b5090506000805b600754811015611e7e576004600082815260200190815260200160002060060160019054906101000a900460ff1615611e6b576004600082815260200190815260200160002060405180610140016040529081600082015481526020016001820160009054906101000a900473ffffffffffffffffffffffffffffffffffffffff1673ffffffffffffffffffffffffffffffffffffffff1673ffffffffffffffffffffffffffffffffffffffff168152602001600282018054611cd09061335f565b80601f0160208091040260200160405190810160405280929190818152602001828054611cfc9061335f565b8015611d495780601f10611d1e57610100808354040283529160200191611d49565b820191906000526020600020905b815481529060010190602001808311611d2c57829003601f168201915b505050505081526020016003820154815260200160048201548152602001600582015481526020016006820160009054906101000a900460ff161515151581526020016006820160019054906101000a900460ff1615151515815260200160078201805480602002602001604051908101604052809291908181526020018280548015611e2b57602002820191906000526020600020905b8160009054906101000a900473ffffffffffffffffffffffffffffffffffffffff1673ffffffffffffffffffffffffffffffffffffffff1681526020019060010190808311611de1575b50505050508152602001600882015481525050838381518110611e5157611e50613ab6565b5b60200260200101819052508180611e679061356d565b9250505b8080611e769061356d565b915050611c0e565b5081935050505090565b60606000805b600754811015611f11576004600082815260200190815260200160002060060160019054906101000a900460ff16158015611eea57506004600082815260200190815260200160002060060160009054906101000a900460ff16155b15611efe578180611efa9061356d565b9250505b8080611f099061356d565b915050611e8e565b5060008167ffffffffffffffff811115611f2e57611f2d612c0a565b5b604051908082528060200260200182016040528015611f6757816020015b611f5461298d565b815260200190600190039081611f4c5790505b5090506000805b60075481101561220c576004600082815260200190815260200160002060060160019054906101000a900460ff16158015611fca57506004600082815260200190815260200160002060060160009054906101000a900460ff16155b156121f9576004600082815260200190815260200160002060405180610140016040529081600082015481526020016001820160009054906101000a900473ffffffffffffffffffffffffffffffffffffffff1673ffffffffffffffffffffffffffffffffffffffff1673ffffffffffffffffffffffffffffffffffffffff16815260200160028201805461205e9061335f565b80601f016020809104026020016040519081016040528092919081815260200182805461208a9061335f565b80156120d75780601f106120ac576101008083540402835291602001916120d7565b820191906000526020600020905b8154815290600101906020018083116120ba57829003601f168201915b505050505081526020016003820154815260200160048201548152602001600582015481526020016006820160009054906101000a900460ff161515151581526020016006820160019054906101000a900460ff16151515158152602001600782018054806020026020016040519081016040528092919081815260200182805480156121b957602002820191906000526020600020905b8160009054906101000a900473ffffffffffffffffffffffffffffffffffffffff1673ffffffffffffffffffffffffffffffffffffffff168152602001906001019080831161216f575b505050505081526020016008820154815250508383815181106121df576121de613ab6565b5b602002602001018190525081806121f59061356d565b9250505b80806122049061356d565b915050611f6e565b5081935050505090565b60008060606000806000806000806000600460008c8152602001908152602001600020905080600001548160010160009054906101000a900473ffffffffffffffffffffffffffffffffffffffff16826002018360030154846004015485600501548660060160009054906101000a900460ff168760060160019054906101000a900460ff1688600801548680546122ad9061335f565b80601f01602080910402602001604051908101604052809291908181526020018280546122d99061335f565b80156123265780601f106122fb57610100808354040283529160200191612326565b820191906000526020600020905b81548152906001019060200180831161230957829003601f168201915b50505050509650995099509950995099509950995099509950509193959799909294969850565b60606000805b6007548110156123e8578373ffffffffffffffffffffffffffffffffffffffff166004600083815260200190815260200160002060010160009054906101000a900473ffffffffffffffffffffffffffffffffffffffff1673ffffffffffffffffffffffffffffffffffffffff16036123d55781806123d19061356d565b9250505b80806123e09061356d565b915050612353565b5060008167ffffffffffffffff81111561240557612404612c0a565b5b60405190808252806020026020018201604052801561243e57816020015b61242b61298d565b8152602001906001900390816124235790505b5090506000805b6007548110156126e7578573ffffffffffffffffffffffffffffffffffffffff166004600083815260200190815260200160002060010160009054906101000a900473ffffffffffffffffffffffffffffffffffffffff1673ffffffffffffffffffffffffffffffffffffffff16036126d4576004600082815260200190815260200160002060405180610140016040529081600082015481526020016001820160009054906101000a900473ffffffffffffffffffffffffffffffffffffffff1673ffffffffffffffffffffffffffffffffffffffff1673ffffffffffffffffffffffffffffffffffffffff1681526020016002820180546125479061335f565b80601f01602080910402602001604051908101604052809291908181526020018280546125739061335f565b80156125c05780601f10612595576101008083540402835291602001916125c0565b820191906000526020600020905b8154815290600101906020018083116125a357829003601f168201915b505050505081526020016003820154815260200160048201548152602001600582015481526020016006820160009054906101000a900460ff161515151581526020016006820160019054906101000a900460ff16151515158152602001600782018054806020026020016040519081016040528092919081815260200182805480156126a257602002820191906000526020600020905b8160009054906101000a900473ffffffffffffffffffffffffffffffffffffffff1673ffffffffffffffffffffffffffffffffffffffff1681526020019060010190808311612658575b505050505081526020016008820154815250508383815181106126c8576126c7613ab6565b5b60200260200101819052505b80806126df9061356d565b915050612445565b50505050919050565b600360009054906101000a900460ff1661273f576040517f08c379a000000000000000000000000000000000000000000000000000000000815260040161273690613448565b60405180910390fd5b60006004600084815260200190815260200160002090508060060160009054906101000a900460ff16156127a8576040517f08c379a000000000000000000000000000000000000000000000000000000000815260040161279f90613d4c565b60405180910390fd5b8060060160019054906101000a900460ff16156127fa576040517f08c379a00000000000000000000000000000000000000000000000000000000081526004016127f190613db8565b60405180910390fd5b81816003015461280a9190613497565b341461284b576040517f08c379a000000000000000000000000000000000000000000000000000000000815260040161284290613e24565b60405180910390fd5b80600701339080600181540180825580915050600190039060005260206000200160009091909190916101000a81548173ffffffffffffffffffffffffffffffffffffffff021916908373ffffffffffffffffffffffffffffffffffffffff16021790555081600660003373ffffffffffffffffffffffffffffffffffffffff1673ffffffffffffffffffffffffffffffffffffffff168152602001908152602001600020600085815260200190815260200160002060008282546129109190613539565b925050819055508181600501600082825461292b9190613539565b92505081905550348160080160008282546129469190613539565b925050819055507f32ce8e6b57cb1303806eaf9b3bf3609699c7a1a3231079bd7ece621d13c6c4bf83333460405161298093929190613ae5565b60405180910390a1505050565b60405180610140016040528060008152602001600073ffffffffffffffffffffffffffffffffffffffff1681526020016060815260200160008152602001600081526020016000815260200160001515815260200160001515815260200160608152602001600081525090565b6000604051905090565b600080fd5b600080fd5b6000819050919050565b612a2181612a0e565b8114612a2c57600080fd5b50565b600081359050612a3e81612a18565b92915050565b600060208284031215612a5a57612a59612a04565b5b6000612a6884828501612a2f565b91505092915050565b612a7a81612a0e565b82525050565b600073ffffffffffffffffffffffffffffffffffffffff82169050919050565b6000612aab82612a80565b9050919050565b612abb81612aa0565b82525050565b600081519050919050565b600082825260208201905092915050565b60005b83811015612afb578082015181840152602081019050612ae0565b60008484015250505050565b6000601f19601f8301169050919050565b6000612b2382612ac1565b612b2d8185612acc565b9350612b3d818560208601612add565b612b4681612b07565b840191505092915050565b60008115159050919050565b612b6681612b51565b82525050565b600061012082019050612b82600083018c612a71565b612b8f602083018b612ab2565b8181036040830152612ba1818a612b18565b9050612bb06060830189612a71565b612bbd6080830188612a71565b612bca60a0830187612a71565b612bd760c0830186612b5d565b612be460e0830185612b5d565b612bf2610100830184612a71565b9a9950505050505050505050565b600080fd5b600080fd5b7f4e487b7100000000000000000000000000000000000000000000000000000000600052604160045260246000fd5b612c4282612b07565b810181811067ffffffffffffffff82111715612c6157612c60612c0a565b5b80604052505050565b6000612c746129fa565b9050612c808282612c39565b919050565b600067ffffffffffffffff821115612ca057612c9f612c0a565b5b612ca982612b07565b9050602081019050919050565b82818337600083830152505050565b6000612cd8612cd384612c85565b612c6a565b905082815260208101848484011115612cf457612cf3612c05565b5b612cff848285612cb6565b509392505050565b600082601f830112612d1c57612d1b612c00565b5b8135612d2c848260208601612cc5565b91505092915050565b600080600060608486031215612d4e57612d4d612a04565b5b600084013567ffffffffffffffff811115612d6c57612d6b612a09565b5b612d7886828701612d07565b9350506020612d8986828701612a2f565b9250506040612d9a86828701612a2f565b9150509250925092565b612dad81612aa0565b8114612db857600080fd5b50565b600081359050612dca81612da4565b92915050565b600060208284031215612de657612de5612a04565b5b6000612df484828501612dbb565b91505092915050565b6000602082019050612e126000830184612b5d565b92915050565b600081519050919050565b600082825260208201905092915050565b6000819050602082019050919050565b612e4d81612aa0565b82525050565b6000612e5f8383612e44565b60208301905092915050565b6000602082019050919050565b6000612e8382612e18565b612e8d8185612e23565b9350612e9883612e34565b8060005b83811015612ec9578151612eb08882612e53565b9750612ebb83612e6b565b925050600181019050612e9c565b5085935050505092915050565b60006020820190508181036000830152612ef08184612e78565b905092915050565b600081519050919050565b600082825260208201905092915050565b6000819050602082019050919050565b612f2d81612a0e565b82525050565b6000612f3f8383612f24565b60208301905092915050565b6000602082019050919050565b6000612f6382612ef8565b612f6d8185612f03565b9350612f7883612f14565b8060005b83811015612fa9578151612f908882612f33565b9750612f9b83612f4b565b925050600181019050612f7c565b5085935050505092915050565b60006040820190508181036000830152612fd08185612f58565b90508181036020830152612fe48184612f58565b90509392505050565b6000806040838503121561300457613003612a04565b5b600061301285828601612dbb565b925050602061302385828601612a2f565b9150509250929050565b60006020820190506130426000830184612a71565b92915050565b600060208201905061305d6000830184612ab2565b92915050565b600081519050919050565b600082825260208201905092915050565b6000819050602082019050919050565b600082825260208201905092915050565b60006130ab82612ac1565b6130b5818561308f565b93506130c5818560208601612add565b6130ce81612b07565b840191505092915050565b6130e281612b51565b82525050565b600082825260208201905092915050565b600061310482612e18565b61310e81856130e8565b935061311983612e34565b8060005b8381101561314a5781516131318882612e53565b975061313c83612e6b565b92505060018101905061311d565b5085935050505092915050565b6000610140830160008301516131706000860182612f24565b5060208301516131836020860182612e44565b506040830151848203604086015261319b82826130a0565b91505060608301516131b06060860182612f24565b5060808301516131c36080860182612f24565b5060a08301516131d660a0860182612f24565b5060c08301516131e960c08601826130d9565b5060e08301516131fc60e08601826130d9565b5061010083015184820361010086015261321682826130f9565b91505061012083015161322d610120860182612f24565b508091505092915050565b60006132448383613157565b905092915050565b6000602082019050919050565b600061326482613063565b61326e818561306e565b9350836020820285016132808561307f565b8060005b858110156132bc578484038952815161329d8582613238565b94506132a88361324c565b925060208a01995050600181019050613284565b50829750879550505050505092915050565b600060208201905081810360008301526132e88184613259565b905092915050565b6000806040838503121561330757613306612a04565b5b600061331585828601612a2f565b925050602061332685828601612a2f565b9150509250929050565b7f4e487b7100000000000000000000000000000000000000000000000000000000600052602260045260246000fd5b6000600282049050600182168061337757607f821691505b60208210810361338a57613389613330565b5b50919050565b7f4e6f7420617574686f72697a6564000000000000000000000000000000000000600082015250565b60006133c6600e83612acc565b91506133d182613390565b602082019050919050565b600060208201905081810360008301526133f5816133b9565b9050919050565b7f436f6e7472616374206973206e6f206c6f6e6765722061637469766500000000600082015250565b6000613432601c83612acc565b915061343d826133fc565b602082019050919050565b6000602082019050818103600083015261346181613425565b9050919050565b7f4e487b7100000000000000000000000000000000000000000000000000000000600052601160045260246000fd5b60006134a282612a0e565b91506134ad83612a0e565b92508282026134bb81612a0e565b915082820484148315176134d2576134d1613468565b5b5092915050565b7f4e487b7100000000000000000000000000000000000000000000000000000000600052601260045260246000fd5b600061351382612a0e565b915061351e83612a0e565b92508261352e5761352d6134d9565b5b828204905092915050565b600061354482612a0e565b915061354f83612a0e565b925082820190508082111561356757613566613468565b5b92915050565b600061357882612a0e565b91507fffffffffffffffffffffffffffffffffffffffffffffffffffffffffffffffff82036135aa576135a9613468565b5b600182019050919050565b7f496e73756666696369656e742062616c616e6365000000000000000000000000600082015250565b60006135eb601483612acc565b91506135f6826135b5565b602082019050919050565b6000602082019050818103600083015261361a816135de565b9050919050565b60006040820190506136366000830185612ab2565b6136436020830184612a71565b9392505050565b7f42616e6e65642066726f6d206372656174696e672063616d706169676e730000600082015250565b6000613680601e83612acc565b915061368b8261364a565b602082019050919050565b600060208201905081810360008301526136af81613673565b9050919050565b7f496e636f72726563742063616d706169676e2066656500000000000000000000600082015250565b60006136ec601683612acc565b91506136f7826136b6565b602082019050919050565b6000602082019050818103600083015261371b816136df565b9050919050565b60008190508160005260206000209050919050565b60006020601f8301049050919050565b600082821b905092915050565b6000600883026137847fffffffffffffffffffffffffffffffffffffffffffffffffffffffffffffffff82613747565b61378e8683613747565b95508019841693508086168417925050509392505050565b6000819050919050565b60006137cb6137c66137c184612a0e565b6137a6565b612a0e565b9050919050565b6000819050919050565b6137e5836137b0565b6137f96137f1826137d2565b848454613754565b825550505050565b600090565b61380e613801565b6138198184846137dc565b505050565b5b8181101561383d57613832600082613806565b60018101905061381f565b5050565b601f8211156138825761385381613722565b61385c84613737565b8101602085101561386b578190505b61387f61387785613737565b83018261381e565b50505b505050565b600082821c905092915050565b60006138a560001984600802613887565b1980831691505092915050565b60006138be8383613894565b9150826002028217905092915050565b6138d782612ac1565b67ffffffffffffffff8111156138f0576138ef612c0a565b5b6138fa825461335f565b613905828285613841565b600060209050601f8311600181146139385760008415613926578287015190505b61393085826138b2565b865550613998565b601f19841661394686613722565b60005b8281101561396e57848901518255600182019150602085019450602081019050613949565b8683101561398b5784890151613987601f891682613894565b8355505b6001600288020188555050505b505050505050565b60006060820190506139b56000830186612a71565b6139c26020830185612ab2565b81810360408301526139d48184612b18565b9050949350505050565b7f43616d706169676e20616c726561647920636f6d706c65746564000000000000600082015250565b6000613a14601a83612acc565b9150613a1f826139de565b602082019050919050565b60006020820190508181036000830152613a4381613a07565b9050919050565b7f43616d706169676e20616c72656164792063616e63656c6c6564000000000000600082015250565b6000613a80601a83612acc565b9150613a8b82613a4a565b602082019050919050565b60006020820190508181036000830152613aaf81613a73565b9050919050565b7f4e487b7100000000000000000000000000000000000000000000000000000000600052603260045260246000fd5b6000606082019050613afa6000830186612a71565b613b076020830185612ab2565b613b146040830184612a71565b949350505050565b7f416c72656164792066756c66696c6c6564000000000000000000000000000000600082015250565b6000613b52601183612acc565b9150613b5d82613b1c565b602082019050919050565b60006020820190508181036000830152613b8181613b45565b9050919050565b7f416c72656164792063616e63656c6c6564000000000000000000000000000000600082015250565b6000613bbe601183612acc565b9150613bc982613b88565b602082019050919050565b60006020820190508181036000830152613bed81613bb1565b9050919050565b7f4e6f7420656e6f75676820706c65646765730000000000000000000000000000600082015250565b6000613c2a601283612acc565b9150613c3582613bf4565b602082019050919050565b60006020820190508181036000830152613c5981613c1d565b9050919050565b6000613c6b82612a0e565b9150613c7683612a0e565b9250828203905081811115613c8e57613c8d613468565b5b92915050565b7f496e76616c696420616464726573730000000000000000000000000000000000600082015250565b6000613cca600f83612acc565b9150613cd582613c94565b602082019050919050565b60006020820190508181036000830152613cf981613cbd565b9050919050565b7f43616d706169676e20636f6d706c657465640000000000000000000000000000600082015250565b6000613d36601283612acc565b9150613d4182613d00565b602082019050919050565b60006020820190508181036000830152613d6581613d29565b9050919050565b7f43616d706169676e2063616e63656c6c65640000000000000000000000000000600082015250565b6000613da2601283612acc565b9150613dad82613d6c565b602082019050919050565b60006020820190508181036000830152613dd181613d95565b9050919050565b7f496e636f727265637420706c6564676520616d6f756e74000000000000000000600082015250565b6000613e0e601783612acc565b9150613e1982613dd8565b602082019050919050565b60006020820190508181036000830152613e3d81613e01565b905091905056fea26469706673582212209dee00c4314c7f0f13e15032e6bf4cbfc72af40b4ec428eef04c583159eda25764736f6c63430008110033",
  "linkReferences": {},
  "deployedLinkReferences": {}
}